{
  "transactions": [
    {
      "hash": "0x102b2529eb194c34f5484862a0ec913c7eda0bdc8ea57fb35bc1ca1838797b71",
      "transactionType": "CALL",
      "contractName": null,
      "contractAddress": "0x7a250d5630b4cf539739df2c5dacb4c659f2488d",
      "function": "swapExactETHForTokens(uint256,address[],address,uint256)",
      "arguments": [
        "0",
        "[0xC02aaA39b223FE8D0A0e5C4F27eAD9083C756Cc2, 0xdAC17F958D2ee523a2206206994597C13D831ec7]",
        "0xf39Fd6e51aad88F6F4ce6aB8827279cffFb92266",
        "1741939307"
      ],
      "transaction": {
        "from": "0xf39fd6e51aad88f6f4ce6ab8827279cfffb92266",
        "to": "0x7a250d5630b4cf539739df2c5dacb4c659f2488d",
        "gas": "0x22c73",
        "value": "0xde0b6b3a7640000",
        "input": "0x7ff36ab500000000000000000000000000000000000000000000000000000000000000000000000000000000000000000000000000000000000000000000000000000080000000000000000000000000f39fd6e51aad88f6f4ce6ab8827279cfffb922660000000000000000000000000000000000000000000000000000000067d3e26b0000000000000000000000000000000000000000000000000000000000000002000000000000000000000000c02aaa39b223fe8d0a0e5c4f27ead9083c756cc2000000000000000000000000dac17f958d2ee523a2206206994597c13d831ec7",
        "nonce": "0x37e",
        "chainId": "0x1"
      },
      "additionalContracts": [],
      "isFixedGasLimit": false
    }
  ],
  "receipts": [
    {
      "status": "0x1",
      "cumulativeGasUsed": "0x1bb8d",
      "logs": [
        {
          "address": "0xc02aaa39b223fe8d0a0e5c4f27ead9083c756cc2",
          "topics": [
            "0xe1fffcc4923d04b559f4d29a8bfc6cda04eb5b0d3c460751c2402c5c5cc9109c",
            "0x0000000000000000000000007a250d5630b4cf539739df2c5dacb4c659f2488d"
          ],
          "data": "0x0000000000000000000000000000000000000000000000000de0b6b3a7640000",
          "blockHash": "0xaf6445b48ff0a76aabf6bc40683937dd7e8882d6d42cb6608af6962bd58e62be",
          "blockNumber": "0x1505b3a",
          "blockTimestamp": "0x67d3e259",
          "transactionHash": "0x102b2529eb194c34f5484862a0ec913c7eda0bdc8ea57fb35bc1ca1838797b71",
          "transactionIndex": "0x0",
          "logIndex": "0x0",
          "removed": false
        },
        {
          "address": "0xc02aaa39b223fe8d0a0e5c4f27ead9083c756cc2",
          "topics": [
            "0xddf252ad1be2c89b69c2b068fc378daa952ba7f163c4a11628f55a4df523b3ef",
            "0x0000000000000000000000007a250d5630b4cf539739df2c5dacb4c659f2488d",
            "0x0000000000000000000000000d4a11d5eeaac28ec3f61d100daf4d40471f1852"
          ],
          "data": "0x0000000000000000000000000000000000000000000000000de0b6b3a7640000",
          "blockHash": "0xaf6445b48ff0a76aabf6bc40683937dd7e8882d6d42cb6608af6962bd58e62be",
          "blockNumber": "0x1505b3a",
          "blockTimestamp": "0x67d3e259",
          "transactionHash": "0x102b2529eb194c34f5484862a0ec913c7eda0bdc8ea57fb35bc1ca1838797b71",
          "transactionIndex": "0x0",
          "logIndex": "0x1",
          "removed": false
        },
        {
          "address": "0xdac17f958d2ee523a2206206994597c13d831ec7",
          "topics": [
            "0xddf252ad1be2c89b69c2b068fc378daa952ba7f163c4a11628f55a4df523b3ef",
            "0x0000000000000000000000000d4a11d5eeaac28ec3f61d100daf4d40471f1852",
            "0x000000000000000000000000f39fd6e51aad88f6f4ce6ab8827279cfffb92266"
          ],
          "data": "0x0000000000000000000000000000000000000000000000000000000070686918",
          "blockHash": "0xaf6445b48ff0a76aabf6bc40683937dd7e8882d6d42cb6608af6962bd58e62be",
          "blockNumber": "0x1505b3a",
          "blockTimestamp": "0x67d3e259",
          "transactionHash": "0x102b2529eb194c34f5484862a0ec913c7eda0bdc8ea57fb35bc1ca1838797b71",
          "transactionIndex": "0x0",
          "logIndex": "0x2",
          "removed": false
        },
        {
          "address": "0x0d4a11d5eeaac28ec3f61d100daf4d40471f1852",
          "topics": [
            "0x1c411e9a96e071241c2f21f7726b17ae89e3cab4c78be50e062b03a9fffbbad1"
          ],
          "data": "0x00000000000000000000000000000000000000000000009def7480705e48141300000000000000000000000000000000000000000000000000000502a8f8a46d",
          "blockHash": "0xaf6445b48ff0a76aabf6bc40683937dd7e8882d6d42cb6608af6962bd58e62be",
          "blockNumber": "0x1505b3a",
          "blockTimestamp": "0x67d3e259",
          "transactionHash": "0x102b2529eb194c34f5484862a0ec913c7eda0bdc8ea57fb35bc1ca1838797b71",
          "transactionIndex": "0x0",
          "logIndex": "0x3",
          "removed": false
        },
        {
          "address": "0x0d4a11d5eeaac28ec3f61d100daf4d40471f1852",
          "topics": [
            "0xd78ad95fa46c994b6551d0da85fc275fe613ce37657fb8d5e3d130840159d822",
            "0x0000000000000000000000007a250d5630b4cf539739df2c5dacb4c659f2488d",
            "0x000000000000000000000000f39fd6e51aad88f6f4ce6ab8827279cfffb92266"
          ],
          "data": "0x0000000000000000000000000000000000000000000000000de0b6b3a7640000000000000000000000000000000000000000000000000000000000000000000000000000000000000000000000000000000000000000000000000000000000000000000000000000000000000000000000000000000000000000000070686918",
          "blockHash": "0xaf6445b48ff0a76aabf6bc40683937dd7e8882d6d42cb6608af6962bd58e62be",
          "blockNumber": "0x1505b3a",
          "blockTimestamp": "0x67d3e259",
          "transactionHash": "0x102b2529eb194c34f5484862a0ec913c7eda0bdc8ea57fb35bc1ca1838797b71",
          "transactionIndex": "0x0",
          "logIndex": "0x4",
          "removed": false
        }
      ],
      "logsBloom": "0x00200000000000000000000080000000000000000000000000010000000000000000000000000000400000000000010002000000080000000000000000000000000000000000000000000008000000200000000000000000000000408040000000000000000000000000000100000000000000000000000000000010000000000800800000000000004000000000000000000001000000080000004000100000000000000000000000000080000000000000000000000000000000000000000000000002000000200000000000000000000000002000001000000000000020000000200000000000000004000000000000000000000000400000000000000000",
      "type": "0x2",
      "transactionHash": "0x102b2529eb194c34f5484862a0ec913c7eda0bdc8ea57fb35bc1ca1838797b71",
      "transactionIndex": "0x0",
      "blockHash": "0xaf6445b48ff0a76aabf6bc40683937dd7e8882d6d42cb6608af6962bd58e62be",
      "blockNumber": "0x1505b3a",
      "gasUsed": "0x1bb8d",
      "effectiveGasPrice": "0x1418bf7e",
      "blobGasPrice": "0x5077",
      "from": "0xf39fd6e51aad88f6f4ce6ab8827279cfffb92266",
      "to": "0x7a250d5630b4cf539739df2c5dacb4c659f2488d",
      "contractAddress": null
    }
  ],
  "libraries": [],
  "pending": [],
  "returns": {},
  "timestamp": 1741939297,
  "chain": 1,
  "commit": "fbe450f"
}