{
  "transactions": [
    {
      "hash": "0x4fd2b9fbb42fc0425c16a73e718ff2a9a453511edaa9fdcb9fa7f7275fb45739",
      "transactionType": "CALL",
      "contractName": null,
      "contractAddress": "0x7a250d5630b4cf539739df2c5dacb4c659f2488d",
      "function": "swapExactETHForTokens(uint256,address[],address,uint256)",
      "arguments": [
        "0",
        "[0xC02aaA39b223FE8D0A0e5C4F27eAD9083C756Cc2, 0xdAC17F958D2ee523a2206206994597C13D831ec7]",
        "0xf39Fd6e51aad88F6F4ce6aB8827279cffFb92266",
        "1741936455"
      ],
      "transaction": {
        "from": "0xf39fd6e51aad88f6f4ce6ab8827279cfffb92266",
        "to": "0x7a250d5630b4cf539739df2c5dacb4c659f2488d",
        "gas": "0x2ea62",
        "value": "0xde0b6b3a7640000",
        "input": "0x7ff36ab500000000000000000000000000000000000000000000000000000000000000000000000000000000000000000000000000000000000000000000000000000080000000000000000000000000f39fd6e51aad88f6f4ce6ab8827279cfffb922660000000000000000000000000000000000000000000000000000000067d3d7470000000000000000000000000000000000000000000000000000000000000002000000000000000000000000c02aaa39b223fe8d0a0e5c4f27ead9083c756cc2000000000000000000000000dac17f958d2ee523a2206206994597c13d831ec7",
        "nonce": "0x37c",
        "chainId": "0x1"
      },
      "additionalContracts": [],
      "isFixedGasLimit": false
    }
  ],
  "receipts": [],
  "libraries": [],
  "pending": [],
  "returns": {},
  "timestamp": 1741939226,
  "chain": 1,
  "commit": "fbe450f"
}